{"abi":[{"anonymous":false,"inputs":[{"indexed":false,"internalType":"address","name":"user","type":"address"},{"indexed":false,"internalType":"address","name":"token","type":"address"},{"indexed":false,"internalType":"uint256","name":"amount","type":"uint256"}],"name":"Deposit","type":"event"},{"anonymous":false,"inputs":[{"indexed":false,"internalType":"address","name":"user","type":"address"},{"indexed":false,"internalType":"address","name":"token","type":"address"},{"indexed":false,"internalType":"uint256","name":"amount","type":"uint256"}],"name":"WithDraw","type":"event"},{"inputs":[],"name":"Admin","outputs":[{"internalType":"address","name":"","type":"address"}],"stateMutability":"view","type":"function"},{"inputs":[],"name":"USD","outputs":[{"internalType":"address","name":"","type":"address"}],"stateMutability":"view","type":"function"},{"inputs":[{"internalType":"uint256","name":"amount","type":"uint256"}],"name":"deposit","outputs":[],"stateMutability":"payable","type":"function"},{"inputs":[{"internalType":"address","name":"user","type":"address"}],"name":"getbalance","outputs":[{"internalType":"uint256","name":"","type":"uint256"}],"stateMutability":"view","type":"function"},{"inputs":[],"name":"soren","outputs":[{"internalType":"address","name":"","type":"address"}],"stateMutability":"view","type":"function"},{"inputs":[],"name":"withdraw","outputs":[],"stateMutability":"payable","type":"function"}],"bytecode":"608060405234801561001057600080fd5b50610645806100206000396000f3fe6080604052600436106100555760003560e01c806307efbf2e1461005a5780631bf6c21b146100855780633ccfd60b1461009a57806368116177146100a4578063b6b55f25146100d1578063ff1b636d146100e4575b600080fd5b34801561006657600080fd5b5061006f6100f9565b60405161007c91906104d3565b60405180910390f35b34801561009157600080fd5b5061006f610111565b6100a2610129565b005b3480156100b057600080fd5b506100c46100bf36600461046d565b6102e5565b60405161007c91906105c2565b6100a26100df3660046104bb565b610300565b3480156100f057600080fd5b5061006f610455565b73c07fec71bbc111c6fc9c33da2cbea586469b909781565b730b1b1d5481d05b0c0a1e5008db55f87e64d03d1881565b3360009081526020819052604090205461015e5760405162461bcd60e51b81526004016101559061056a565b60405180910390fd5b3360008181526020819052604080822080549290555163a9059cbb60e01b81529091730b1b1d5481d05b0c0a1e5008db55f87e64d03d189163a9059cbb916101aa91859060040161050b565b602060405180830381600087803b1580156101c457600080fd5b505af11580156101d8573d6000803e3d6000fd5b505050506040513d601f19601f820116820180604052508101906101fc919061049b565b5073c07fec71bbc111c6fc9c33da2cbea586469b909763a9059cbb336102236064856105ef565b6040518363ffffffff1660e01b815260040161024092919061050b565b602060405180830381600087803b15801561025a57600080fd5b505af115801561026e573d6000803e3d6000fd5b505050506040513d601f19601f82011682018060405250810190610292919061049b565b507fec37a407e13e9283023de85016cfda169c84b8f0e8dcda13c92311ab8fee7ad533730b1b1d5481d05b0c0a1e5008db55f87e64d03d18836040516102da939291906104e7565b60405180910390a150565b6001600160a01b031660009081526020819052604090205490565b68056bc75e2d631000008110156103295760405162461bcd60e51b815260040161015590610524565b6040516323b872dd60e01b8152600090730b1b1d5481d05b0c0a1e5008db55f87e64d03d18906323b872dd90610367903390309087906004016104e7565b602060405180830381600087803b15801561038157600080fd5b505af1158015610395573d6000803e3d6000fd5b505050506040513d601f19601f820116820180604052508101906103b9919061049b565b90506001811515146103dd5760405162461bcd60e51b815260040161015590610598565b33600090815260208190526040812080548492906103fc9084906105cb565b90915550506040517f5548c837ab068cf56a2c2479df0882a4922fd203edb7517321831d95078c5f6290610449903390730b1b1d5481d05b0c0a1e5008db55f87e64d03d189086906104e7565b60405180910390a15050565b73b268c07881a418d0bcadcf7204cebc6d68a5490481565b60006020828403121561047e578081fd5b81356001600160a01b0381168114610494578182fd5b9392505050565b6000602082840312156104ac578081fd5b81518015158114610494578182fd5b6000602082840312156104cc578081fd5b5035919050565b6001600160a01b0391909116815260200190565b6001600160a01b039384168152919092166020820152604081019190915260600190565b6001600160a01b03929092168252602082015260400190565b60208082526026908201527f54686520616d6f756e742073686f756c64206265206d6f7265207468616e20316040820152650c0c081554d160d21b606082015260800190565b602080825260149082015273696e73756666696369656e742062616c616e636560601b604082015260600190565b60208082526010908201526f7472616e73666572206661696c65642160801b604082015260600190565b90815260200190565b600082198211156105ea57634e487b7160e01b81526011600452602481fd5b500190565b60008261060a57634e487b7160e01b81526012600452602481fd5b50049056fea2646970667358221220a192c32d1ef89eefb0217406541eff981995a4343696a64d21ee78e6e89cbdc964736f6c63430008000033","bytecodeSha1":"1c567cf3c178e5728a706107e331e519e75be1e8","compiler":{"evm_version":"istanbul","optimizer":{"enabled":true,"runs":200},"version":"0.8.0+commit.c7dfd78e"},"contractName":"DefiBank","language":"Solidity","natspec":{"kind":"dev","methods":{},"version":1},"opcodes":"PUSH1 0x80 PUSH1 0x40 MSTORE PUSH1 0x4 CALLDATASIZE LT PUSH2 0x55 JUMPI PUSH1 0x0 CALLDATALOAD PUSH1 0xE0 SHR DUP1 PUSH4 0x7EFBF2E EQ PUSH2 0x5A JUMPI DUP1 PUSH4 0x1BF6C21B EQ PUSH2 0x85 JUMPI DUP1 PUSH4 0x3CCFD60B EQ PUSH2 0x9A JUMPI DUP1 PUSH4 0x68116177 EQ PUSH2 0xA4 JUMPI DUP1 PUSH4 0xB6B55F25 EQ PUSH2 0xD1 JUMPI DUP1 PUSH4 0xFF1B636D EQ PUSH2 0xE4 JUMPI JUMPDEST PUSH1 0x0 DUP1 REVERT JUMPDEST CALLVALUE DUP1 ISZERO PUSH2 0x66 JUMPI PUSH1 0x0 DUP1 REVERT JUMPDEST POP PUSH2 0x6F PUSH2 0xF9 JUMP JUMPDEST PUSH1 0x40 MLOAD PUSH2 0x7C SWAP2 SWAP1 PUSH2 0x4D3 JUMP JUMPDEST PUSH1 0x40 MLOAD DUP1 SWAP2 SUB SWAP1 RETURN JUMPDEST CALLVALUE DUP1 ISZERO PUSH2 0x91 JUMPI PUSH1 0x0 DUP1 REVERT JUMPDEST POP PUSH2 0x6F PUSH2 0x111 JUMP JUMPDEST PUSH2 0xA2 PUSH2 0x129 JUMP JUMPDEST STOP JUMPDEST CALLVALUE DUP1 ISZERO PUSH2 0xB0 JUMPI PUSH1 0x0 DUP1 REVERT JUMPDEST POP PUSH2 0xC4 PUSH2 0xBF CALLDATASIZE PUSH1 0x4 PUSH2 0x46D JUMP JUMPDEST PUSH2 0x2E5 JUMP JUMPDEST PUSH1 0x40 MLOAD PUSH2 0x7C SWAP2 SWAP1 PUSH2 0x5C2 JUMP JUMPDEST PUSH2 0xA2 PUSH2 0xDF CALLDATASIZE PUSH1 0x4 PUSH2 0x4BB JUMP JUMPDEST PUSH2 0x300 JUMP JUMPDEST CALLVALUE DUP1 ISZERO PUSH2 0xF0 JUMPI PUSH1 0x0 DUP1 REVERT JUMPDEST POP PUSH2 0x6F PUSH2 0x455 JUMP JUMPDEST PUSH20 0xC07FEC71BBC111C6FC9C33DA2CBEA586469B9097 DUP2 JUMP JUMPDEST PUSH20 0xB1B1D5481D05B0C0A1E5008DB55F87E64D03D18 DUP2 JUMP JUMPDEST CALLER PUSH1 0x0 SWAP1 DUP2 MSTORE PUSH1 0x20 DUP2 SWAP1 MSTORE PUSH1 0x40 SWAP1 KECCAK256 SLOAD PUSH2 0x15E JUMPI PUSH1 0x40 MLOAD PUSH3 0x461BCD PUSH1 0xE5 SHL DUP2 MSTORE PUSH1 0x4 ADD PUSH2 0x155 SWAP1 PUSH2 0x56A JUMP JUMPDEST PUSH1 0x40 MLOAD DUP1 SWAP2 SUB SWAP1 REVERT JUMPDEST CALLER PUSH1 0x0 DUP2 DUP2 MSTORE PUSH1 0x20 DUP2 SWAP1 MSTORE PUSH1 0x40 DUP1 DUP3 KECCAK256 DUP1 SLOAD SWAP3 SWAP1 SSTORE MLOAD PUSH4 0xA9059CBB PUSH1 0xE0 SHL DUP2 MSTORE SWAP1 SWAP2 PUSH20 0xB1B1D5481D05B0C0A1E5008DB55F87E64D03D18 SWAP2 PUSH4 0xA9059CBB SWAP2 PUSH2 0x1AA SWAP2 DUP6 SWAP1 PUSH1 0x4 ADD PUSH2 0x50B JUMP JUMPDEST PUSH1 0x20 PUSH1 0x40 MLOAD DUP1 DUP4 SUB DUP2 PUSH1 0x0 DUP8 DUP1 EXTCODESIZE ISZERO DUP1 ISZERO PUSH2 0x1C4 JUMPI PUSH1 0x0 DUP1 REVERT JUMPDEST POP GAS CALL ISZERO DUP1 ISZERO PUSH2 0x1D8 JUMPI RETURNDATASIZE PUSH1 0x0 DUP1 RETURNDATACOPY RETURNDATASIZE PUSH1 0x0 REVERT JUMPDEST POP POP POP POP PUSH1 0x40 MLOAD RETURNDATASIZE PUSH1 0x1F NOT PUSH1 0x1F DUP3 ADD AND DUP3 ADD DUP1 PUSH1 0x40 MSTORE POP DUP2 ADD SWAP1 PUSH2 0x1FC SWAP2 SWAP1 PUSH2 0x49B JUMP JUMPDEST POP PUSH20 0xC07FEC71BBC111C6FC9C33DA2CBEA586469B9097 PUSH4 0xA9059CBB CALLER PUSH2 0x223 PUSH1 0x64 DUP6 PUSH2 0x5EF JUMP JUMPDEST PUSH1 0x40 MLOAD DUP4 PUSH4 0xFFFFFFFF AND PUSH1 0xE0 SHL DUP2 MSTORE PUSH1 0x4 ADD PUSH2 0x240 SWAP3 SWAP2 SWAP1 PUSH2 0x50B JUMP JUMPDEST PUSH1 0x20 PUSH1 0x40 MLOAD DUP1 DUP4 SUB DUP2 PUSH1 0x0 DUP8 DUP1 EXTCODESIZE ISZERO DUP1 ISZERO PUSH2 0x25A JUMPI PUSH1 0x0 DUP1 REVERT JUMPDEST POP GAS CALL ISZERO DUP1 ISZERO PUSH2 0x26E JUMPI RETURNDATASIZE PUSH1 0x0 DUP1 RETURNDATACOPY RETURNDATASIZE PUSH1 0x0 REVERT JUMPDEST POP POP POP POP PUSH1 0x40 MLOAD RETURNDATASIZE PUSH1 0x1F NOT PUSH1 0x1F DUP3 ADD AND DUP3 ADD DUP1 PUSH1 0x40 MSTORE POP DUP2 ADD SWAP1 PUSH2 0x292 SWAP2 SWAP1 PUSH2 0x49B JUMP JUMPDEST POP PUSH32 0xEC37A407E13E9283023DE85016CFDA169C84B8F0E8DCDA13C92311AB8FEE7AD5 CALLER PUSH20 0xB1B1D5481D05B0C0A1E5008DB55F87E64D03D18 DUP4 PUSH1 0x40 MLOAD PUSH2 0x2DA SWAP4 SWAP3 SWAP2 SWAP1 PUSH2 0x4E7 JUMP JUMPDEST PUSH1 0x40 MLOAD DUP1 SWAP2 SUB SWAP1 LOG1 POP JUMP JUMPDEST PUSH1 0x1 PUSH1 0x1 PUSH1 0xA0 SHL SUB AND PUSH1 0x0 SWAP1 DUP2 MSTORE PUSH1 0x20 DUP2 SWAP1 MSTORE PUSH1 0x40 SWAP1 KECCAK256 SLOAD SWAP1 JUMP JUMPDEST PUSH9 0x56BC75E2D63100000 DUP2 LT ISZERO PUSH2 0x329 JUMPI PUSH1 0x40 MLOAD PUSH3 0x461BCD PUSH1 0xE5 SHL DUP2 MSTORE PUSH1 0x4 ADD PUSH2 0x155 SWAP1 PUSH2 0x524 JUMP JUMPDEST PUSH1 0x40 MLOAD PUSH4 0x23B872DD PUSH1 0xE0 SHL DUP2 MSTORE PUSH1 0x0 SWAP1 PUSH20 0xB1B1D5481D05B0C0A1E5008DB55F87E64D03D18 SWAP1 PUSH4 0x23B872DD SWAP1 PUSH2 0x367 SWAP1 CALLER SWAP1 ADDRESS SWAP1 DUP8 SWAP1 PUSH1 0x4 ADD PUSH2 0x4E7 JUMP JUMPDEST PUSH1 0x20 PUSH1 0x40 MLOAD DUP1 DUP4 SUB DUP2 PUSH1 0x0 DUP8 DUP1 EXTCODESIZE ISZERO DUP1 ISZERO PUSH2 0x381 JUMPI PUSH1 0x0 DUP1 REVERT JUMPDEST POP GAS CALL ISZERO DUP1 ISZERO PUSH2 0x395 JUMPI RETURNDATASIZE PUSH1 0x0 DUP1 RETURNDATACOPY RETURNDATASIZE PUSH1 0x0 REVERT JUMPDEST POP POP POP POP PUSH1 0x40 MLOAD RETURNDATASIZE PUSH1 0x1F NOT PUSH1 0x1F DUP3 ADD AND DUP3 ADD DUP1 PUSH1 0x40 MSTORE POP DUP2 ADD SWAP1 PUSH2 0x3B9 SWAP2 SWAP1 PUSH2 0x49B JUMP JUMPDEST SWAP1 POP PUSH1 0x1 DUP2 ISZERO ISZERO EQ PUSH2 0x3DD JUMPI PUSH1 0x40 MLOAD PUSH3 0x461BCD PUSH1 0xE5 SHL DUP2 MSTORE PUSH1 0x4 ADD PUSH2 0x155 SWAP1 PUSH2 0x598 JUMP JUMPDEST CALLER PUSH1 0x0 SWAP1 DUP2 MSTORE PUSH1 0x20 DUP2 SWAP1 MSTORE PUSH1 0x40 DUP2 KECCAK256 DUP1 SLOAD DUP5 SWAP3 SWAP1 PUSH2 0x3FC SWAP1 DUP5 SWAP1 PUSH2 0x5CB JUMP JUMPDEST SWAP1 SWAP2 SSTORE POP POP PUSH1 0x40 MLOAD PUSH32 0x5548C837AB068CF56A2C2479DF0882A4922FD203EDB7517321831D95078C5F62 SWAP1 PUSH2 0x449 SWAP1 CALLER SWAP1 PUSH20 0xB1B1D5481D05B0C0A1E5008DB55F87E64D03D18 SWAP1 DUP7 SWAP1 PUSH2 0x4E7 JUMP JUMPDEST PUSH1 0x40 MLOAD DUP1 SWAP2 SUB SWAP1 LOG1 POP POP JUMP JUMPDEST PUSH20 0xB268C07881A418D0BCADCF7204CEBC6D68A54904 DUP2 JUMP JUMPDEST PUSH1 0x0 PUSH1 0x20 DUP3 DUP5 SUB SLT ISZERO PUSH2 0x47E JUMPI DUP1 DUP2 REVERT JUMPDEST DUP2 CALLDATALOAD PUSH1 0x1 PUSH1 0x1 PUSH1 0xA0 SHL SUB DUP2 AND DUP2 EQ PUSH2 0x494 JUMPI DUP2 DUP3 REVERT JUMPDEST SWAP4 SWAP3 POP POP POP JUMP JUMPDEST PUSH1 0x0 PUSH1 0x20 DUP3 DUP5 SUB SLT ISZERO PUSH2 0x4AC JUMPI DUP1 DUP2 REVERT JUMPDEST DUP2 MLOAD DUP1 ISZERO ISZERO DUP2 EQ PUSH2 0x494 JUMPI DUP2 DUP3 REVERT JUMPDEST PUSH1 0x0 PUSH1 0x20 DUP3 DUP5 SUB SLT ISZERO PUSH2 0x4CC JUMPI DUP1 DUP2 REVERT JUMPDEST POP CALLDATALOAD SWAP2 SWAP1 POP JUMP JUMPDEST PUSH1 0x1 PUSH1 0x1 PUSH1 0xA0 SHL SUB SWAP2 SWAP1 SWAP2 AND DUP2 MSTORE PUSH1 0x20 ADD SWAP1 JUMP JUMPDEST PUSH1 0x1 PUSH1 0x1 PUSH1 0xA0 SHL SUB SWAP4 DUP5 AND DUP2 MSTORE SWAP2 SWAP1 SWAP3 AND PUSH1 0x20 DUP3 ADD MSTORE PUSH1 0x40 DUP2 ADD SWAP2 SWAP1 SWAP2 MSTORE PUSH1 0x60 ADD SWAP1 JUMP JUMPDEST PUSH1 0x1 PUSH1 0x1 PUSH1 0xA0 SHL SUB SWAP3 SWAP1 SWAP3 AND DUP3 MSTORE PUSH1 0x20 DUP3 ADD MSTORE PUSH1 0x40 ADD SWAP1 JUMP JUMPDEST PUSH1 0x20 DUP1 DUP3 MSTORE PUSH1 0x26 SWAP1 DUP3 ADD MSTORE PUSH32 0x54686520616D6F756E742073686F756C64206265206D6F7265207468616E2031 PUSH1 0x40 DUP3 ADD MSTORE PUSH6 0xC0C081554D1 PUSH1 0xD2 SHL PUSH1 0x60 DUP3 ADD MSTORE PUSH1 0x80 ADD SWAP1 JUMP JUMPDEST PUSH1 0x20 DUP1 DUP3 MSTORE PUSH1 0x14 SWAP1 DUP3 ADD MSTORE PUSH20 0x696E73756666696369656E742062616C616E6365 PUSH1 0x60 SHL PUSH1 0x40 DUP3 ADD MSTORE PUSH1 0x60 ADD SWAP1 JUMP JUMPDEST PUSH1 0x20 DUP1 DUP3 MSTORE PUSH1 0x10 SWAP1 DUP3 ADD MSTORE PUSH16 0x7472616E73666572206661696C656421 PUSH1 0x80 SHL PUSH1 0x40 DUP3 ADD MSTORE PUSH1 0x60 ADD SWAP1 JUMP JUMPDEST SWAP1 DUP2 MSTORE PUSH1 0x20 ADD SWAP1 JUMP JUMPDEST PUSH1 0x0 DUP3 NOT DUP3 GT ISZERO PUSH2 0x5EA JUMPI PUSH4 0x4E487B71 PUSH1 0xE0 SHL DUP2 MSTORE PUSH1 0x11 PUSH1 0x4 MSTORE PUSH1 0x24 DUP2 REVERT JUMPDEST POP ADD SWAP1 JUMP JUMPDEST PUSH1 0x0 DUP3 PUSH2 0x60A JUMPI PUSH4 0x4E487B71 PUSH1 0xE0 SHL DUP2 MSTORE PUSH1 0x12 PUSH1 0x4 MSTORE PUSH1 0x24 DUP2 REVERT JUMPDEST POP DIV SWAP1 JUMP INVALID LOG2 PUSH5 0x6970667358 0x22 SLT KECCAK256 LOG1 SWAP3 0xC3 0x2D 0x1E 0xF8 SWAP15 0xEF 0xB0 0x21 PUSH21 0x6541EFF981995A4343696A64D21EE78E6E89CBDC9 PUSH5 0x736F6C6343 STOP ADDMOD STOP STOP CALLER ","sha1":"078d3aa4eb6bd667e7bd95af27eedcfb31708268","source":"// SPDX-License-Identifier: MIT\npragma solidity 0.8.0;\n\nimport \"@openzeppelin/contracts/token/ERC20/IERC20.sol\";\n\ncontract DefiBank {\n\n\n    address public constant Admin = 0xB268C07881a418D0BcADCF7204CeBc6D68A54904;\n    address public constant USD = 0x0B1B1D5481d05B0C0a1e5008DB55f87E64d03D18;\n    address public constant soren = 0xC07FEc71bbc111C6fC9C33da2cbEA586469b9097;\n\n    mapping(address => uint256) balances;\n    event Deposit(address user, address token, uint256 amount);\n    event WithDraw(address user, address token, uint256 amount);\n\n\n\n    function deposit(uint256 amount) public payable{\n\n        require(amount >= 100000000000000000000, 'The amount should be more than 100 USD');\n        \n        bool success = IERC20(USD).transferFrom(msg.sender, address(this), amount);\n        require(success == true, \"transfer failed!\");\n\n        balances[msg.sender] += amount;\n        emit Deposit(msg.sender, USD, amount);\n        \n    }\n\n\n    function withdraw() public payable{\n\n        require(balances[msg.sender] > 0, 'insufficient balance');\n\n        uint256 balance = balances[msg.sender];\n        balances[msg.sender] = 0;\n\n        IERC20(USD).transfer(msg.sender, balance);\n        IERC20(soren).transfer(msg.sender, balance / 100);\n\n        emit WithDraw(msg.sender, USD, balance);\n    }\n\n\n    function getbalance(address user) public view returns(uint256){\n\n        return balances[user];\n    }\n}","sourcePath":"contracts/defi.sol","type":"contract","deployment":{"address":"0x51A4ACef234c5b9E682F6d2584E1e41Cb6645C76","chainid":"4","blockHeight":11061007}}