{"bytecode":"608060405234801561001057600080fd5b50610563806100206000396000f3fe60806040526004361061004a5760003560e01c80631bf6c21b1461004f5780633ccfd60b1461007a5780636811617714610084578063b6b55f25146100b1578063ff1b636d146100c4575b600080fd5b34801561005b57600080fd5b506100646100d9565b6040516100719190610420565b60405180910390f35b6100826100f1565b005b34801561009057600080fd5b506100a461009f3660046103ba565b610217565b6040516100719190610500565b6100826100bf366004610408565b610232565b3480156100d057600080fd5b506100646103a2565b730b1b1d5481d05b0c0a1e5008db55f87e64d03d1881565b336000908152600160205260409020546101265760405162461bcd60e51b815260040161011d906104a8565b60405180910390fd5b3360008181526001602052604080822080549290555163a9059cbb60e01b81529091730b1b1d5481d05b0c0a1e5008db55f87e64d03d189163a9059cbb91610172918590600401610458565b602060405180830381600087803b15801561018c57600080fd5b505af11580156101a0573d6000803e3d6000fd5b505050506040513d601f19601f820116820180604052508101906101c491906103e8565b507fec37a407e13e9283023de85016cfda169c84b8f0e8dcda13c92311ab8fee7ad533730b1b1d5481d05b0c0a1e5008db55f87e64d03d188360405161020c93929190610434565b60405180910390a150565b6001600160a01b031660009081526001602052604090205490565b3360009081526020819052604090205460ff16156102625760405162461bcd60e51b815260040161011d90610471565b6040516323b872dd60e01b8152600090730b1b1d5481d05b0c0a1e5008db55f87e64d03d18906323b872dd906102a090339030908790600401610434565b602060405180830381600087803b1580156102ba57600080fd5b505af11580156102ce573d6000803e3d6000fd5b505050506040513d601f19601f820116820180604052508101906102f291906103e8565b90506001811515146103165760405162461bcd60e51b815260040161011d906104d6565b33600090815260208181526040808320805460ff1916600190811790915590915281208054849290610349908490610509565b90915550506040517f5548c837ab068cf56a2c2479df0882a4922fd203edb7517321831d95078c5f6290610396903390730b1b1d5481d05b0c0a1e5008db55f87e64d03d18908690610434565b60405180910390a15050565b73b268c07881a418d0bcadcf7204cebc6d68a5490481565b6000602082840312156103cb578081fd5b81356001600160a01b03811681146103e1578182fd5b9392505050565b6000602082840312156103f9578081fd5b815180151581146103e1578182fd5b600060208284031215610419578081fd5b5035919050565b6001600160a01b0391909116815260200190565b6001600160a01b039384168152919092166020820152604081019190915260600190565b6001600160a01b03929092168252602082015260400190565b60208082526018908201527f596f752063616e206e6f7420696e766573742074776963650000000000000000604082015260600190565b602080825260149082015273696e73756666696369656e742062616c616e636560601b604082015260600190565b60208082526010908201526f7472616e73666572206661696c65642160801b604082015260600190565b90815260200190565b6000821982111561052857634e487b7160e01b81526011600452602481fd5b50019056fea2646970667358221220479eec36d6adb39c1ad4191c849dffe7da4815b26cd0862d13558f490e9ac55264736f6c63430008000033","bytecodeSha1":"3cd91029e91716c48f0903f9f60bd96a1206a894","type":"contract","abi":[{"anonymous":false,"inputs":[{"indexed":false,"internalType":"address","name":"user","type":"address"},{"indexed":false,"internalType":"address","name":"token","type":"address"},{"indexed":false,"internalType":"uint256","name":"amount","type":"uint256"}],"name":"Deposit","type":"event"},{"anonymous":false,"inputs":[{"indexed":false,"internalType":"address","name":"user","type":"address"},{"indexed":false,"internalType":"address","name":"token","type":"address"},{"indexed":false,"internalType":"uint256","name":"amount","type":"uint256"}],"name":"WithDraw","type":"event"},{"inputs":[],"name":"Admin","outputs":[{"internalType":"address","name":"","type":"address"}],"stateMutability":"view","type":"function"},{"inputs":[],"name":"USD","outputs":[{"internalType":"address","name":"","type":"address"}],"stateMutability":"view","type":"function"},{"inputs":[{"internalType":"uint256","name":"amount","type":"uint256"}],"name":"deposit","outputs":[],"stateMutability":"payable","type":"function"},{"inputs":[{"internalType":"address","name":"user","type":"address"}],"name":"getbalance","outputs":[{"internalType":"uint256","name":"","type":"uint256"}],"stateMutability":"view","type":"function"},{"inputs":[],"name":"withdraw","outputs":[],"stateMutability":"payable","type":"function"}],"compiler":{"version":"0.8.0+commit.c7dfd78e","evm_version":"istanbul","optimizer":{"enabled":true,"runs":200}},"contractName":"DefiBank","language":"Solidity","natspec":{"methods":{},"kind":"dev","version":1},"opcodes":"PUSH1 0x80 PUSH1 0x40 MSTORE PUSH1 0x4 CALLDATASIZE LT PUSH2 0x4A JUMPI PUSH1 0x0 CALLDATALOAD PUSH1 0xE0 SHR DUP1 PUSH4 0x1BF6C21B EQ PUSH2 0x4F JUMPI DUP1 PUSH4 0x3CCFD60B EQ PUSH2 0x7A JUMPI DUP1 PUSH4 0x68116177 EQ PUSH2 0x84 JUMPI DUP1 PUSH4 0xB6B55F25 EQ PUSH2 0xB1 JUMPI DUP1 PUSH4 0xFF1B636D EQ PUSH2 0xC4 JUMPI JUMPDEST PUSH1 0x0 DUP1 REVERT JUMPDEST CALLVALUE DUP1 ISZERO PUSH2 0x5B JUMPI PUSH1 0x0 DUP1 REVERT JUMPDEST POP PUSH2 0x64 PUSH2 0xD9 JUMP JUMPDEST PUSH1 0x40 MLOAD PUSH2 0x71 SWAP2 SWAP1 PUSH2 0x420 JUMP JUMPDEST PUSH1 0x40 MLOAD DUP1 SWAP2 SUB SWAP1 RETURN JUMPDEST PUSH2 0x82 PUSH2 0xF1 JUMP JUMPDEST STOP JUMPDEST CALLVALUE DUP1 ISZERO PUSH2 0x90 JUMPI PUSH1 0x0 DUP1 REVERT JUMPDEST POP PUSH2 0xA4 PUSH2 0x9F CALLDATASIZE PUSH1 0x4 PUSH2 0x3BA JUMP JUMPDEST PUSH2 0x217 JUMP JUMPDEST PUSH1 0x40 MLOAD PUSH2 0x71 SWAP2 SWAP1 PUSH2 0x500 JUMP JUMPDEST PUSH2 0x82 PUSH2 0xBF CALLDATASIZE PUSH1 0x4 PUSH2 0x408 JUMP JUMPDEST PUSH2 0x232 JUMP JUMPDEST CALLVALUE DUP1 ISZERO PUSH2 0xD0 JUMPI PUSH1 0x0 DUP1 REVERT JUMPDEST POP PUSH2 0x64 PUSH2 0x3A2 JUMP JUMPDEST PUSH20 0xB1B1D5481D05B0C0A1E5008DB55F87E64D03D18 DUP2 JUMP JUMPDEST CALLER PUSH1 0x0 SWAP1 DUP2 MSTORE PUSH1 0x1 PUSH1 0x20 MSTORE PUSH1 0x40 SWAP1 KECCAK256 SLOAD PUSH2 0x126 JUMPI PUSH1 0x40 MLOAD PUSH3 0x461BCD PUSH1 0xE5 SHL DUP2 MSTORE PUSH1 0x4 ADD PUSH2 0x11D SWAP1 PUSH2 0x4A8 JUMP JUMPDEST PUSH1 0x40 MLOAD DUP1 SWAP2 SUB SWAP1 REVERT JUMPDEST CALLER PUSH1 0x0 DUP2 DUP2 MSTORE PUSH1 0x1 PUSH1 0x20 MSTORE PUSH1 0x40 DUP1 DUP3 KECCAK256 DUP1 SLOAD SWAP3 SWAP1 SSTORE MLOAD PUSH4 0xA9059CBB PUSH1 0xE0 SHL DUP2 MSTORE SWAP1 SWAP2 PUSH20 0xB1B1D5481D05B0C0A1E5008DB55F87E64D03D18 SWAP2 PUSH4 0xA9059CBB SWAP2 PUSH2 0x172 SWAP2 DUP6 SWAP1 PUSH1 0x4 ADD PUSH2 0x458 JUMP JUMPDEST PUSH1 0x20 PUSH1 0x40 MLOAD DUP1 DUP4 SUB DUP2 PUSH1 0x0 DUP8 DUP1 EXTCODESIZE ISZERO DUP1 ISZERO PUSH2 0x18C JUMPI PUSH1 0x0 DUP1 REVERT JUMPDEST POP GAS CALL ISZERO DUP1 ISZERO PUSH2 0x1A0 JUMPI RETURNDATASIZE PUSH1 0x0 DUP1 RETURNDATACOPY RETURNDATASIZE PUSH1 0x0 REVERT JUMPDEST POP POP POP POP PUSH1 0x40 MLOAD RETURNDATASIZE PUSH1 0x1F NOT PUSH1 0x1F DUP3 ADD AND DUP3 ADD DUP1 PUSH1 0x40 MSTORE POP DUP2 ADD SWAP1 PUSH2 0x1C4 SWAP2 SWAP1 PUSH2 0x3E8 JUMP JUMPDEST POP PUSH32 0xEC37A407E13E9283023DE85016CFDA169C84B8F0E8DCDA13C92311AB8FEE7AD5 CALLER PUSH20 0xB1B1D5481D05B0C0A1E5008DB55F87E64D03D18 DUP4 PUSH1 0x40 MLOAD PUSH2 0x20C SWAP4 SWAP3 SWAP2 SWAP1 PUSH2 0x434 JUMP JUMPDEST PUSH1 0x40 MLOAD DUP1 SWAP2 SUB SWAP1 LOG1 POP JUMP JUMPDEST PUSH1 0x1 PUSH1 0x1 PUSH1 0xA0 SHL SUB AND PUSH1 0x0 SWAP1 DUP2 MSTORE PUSH1 0x1 PUSH1 0x20 MSTORE PUSH1 0x40 SWAP1 KECCAK256 SLOAD SWAP1 JUMP JUMPDEST CALLER PUSH1 0x0 SWAP1 DUP2 MSTORE PUSH1 0x20 DUP2 SWAP1 MSTORE PUSH1 0x40 SWAP1 KECCAK256 SLOAD PUSH1 0xFF AND ISZERO PUSH2 0x262 JUMPI PUSH1 0x40 MLOAD PUSH3 0x461BCD PUSH1 0xE5 SHL DUP2 MSTORE PUSH1 0x4 ADD PUSH2 0x11D SWAP1 PUSH2 0x471 JUMP JUMPDEST PUSH1 0x40 MLOAD PUSH4 0x23B872DD PUSH1 0xE0 SHL DUP2 MSTORE PUSH1 0x0 SWAP1 PUSH20 0xB1B1D5481D05B0C0A1E5008DB55F87E64D03D18 SWAP1 PUSH4 0x23B872DD SWAP1 PUSH2 0x2A0 SWAP1 CALLER SWAP1 ADDRESS SWAP1 DUP8 SWAP1 PUSH1 0x4 ADD PUSH2 0x434 JUMP JUMPDEST PUSH1 0x20 PUSH1 0x40 MLOAD DUP1 DUP4 SUB DUP2 PUSH1 0x0 DUP8 DUP1 EXTCODESIZE ISZERO DUP1 ISZERO PUSH2 0x2BA JUMPI PUSH1 0x0 DUP1 REVERT JUMPDEST POP GAS CALL ISZERO DUP1 ISZERO PUSH2 0x2CE JUMPI RETURNDATASIZE PUSH1 0x0 DUP1 RETURNDATACOPY RETURNDATASIZE PUSH1 0x0 REVERT JUMPDEST POP POP POP POP PUSH1 0x40 MLOAD RETURNDATASIZE PUSH1 0x1F NOT PUSH1 0x1F DUP3 ADD AND DUP3 ADD DUP1 PUSH1 0x40 MSTORE POP DUP2 ADD SWAP1 PUSH2 0x2F2 SWAP2 SWAP1 PUSH2 0x3E8 JUMP JUMPDEST SWAP1 POP PUSH1 0x1 DUP2 ISZERO ISZERO EQ PUSH2 0x316 JUMPI PUSH1 0x40 MLOAD PUSH3 0x461BCD PUSH1 0xE5 SHL DUP2 MSTORE PUSH1 0x4 ADD PUSH2 0x11D SWAP1 PUSH2 0x4D6 JUMP JUMPDEST CALLER PUSH1 0x0 SWAP1 DUP2 MSTORE PUSH1 0x20 DUP2 DUP2 MSTORE PUSH1 0x40 DUP1 DUP4 KECCAK256 DUP1 SLOAD PUSH1 0xFF NOT AND PUSH1 0x1 SWAP1 DUP2 OR SWAP1 SWAP2 SSTORE SWAP1 SWAP2 MSTORE DUP2 KECCAK256 DUP1 SLOAD DUP5 SWAP3 SWAP1 PUSH2 0x349 SWAP1 DUP5 SWAP1 PUSH2 0x509 JUMP JUMPDEST SWAP1 SWAP2 SSTORE POP POP PUSH1 0x40 MLOAD PUSH32 0x5548C837AB068CF56A2C2479DF0882A4922FD203EDB7517321831D95078C5F62 SWAP1 PUSH2 0x396 SWAP1 CALLER SWAP1 PUSH20 0xB1B1D5481D05B0C0A1E5008DB55F87E64D03D18 SWAP1 DUP7 SWAP1 PUSH2 0x434 JUMP JUMPDEST PUSH1 0x40 MLOAD DUP1 SWAP2 SUB SWAP1 LOG1 POP POP JUMP JUMPDEST PUSH20 0xB268C07881A418D0BCADCF7204CEBC6D68A54904 DUP2 JUMP JUMPDEST PUSH1 0x0 PUSH1 0x20 DUP3 DUP5 SUB SLT ISZERO PUSH2 0x3CB JUMPI DUP1 DUP2 REVERT JUMPDEST DUP2 CALLDATALOAD PUSH1 0x1 PUSH1 0x1 PUSH1 0xA0 SHL SUB DUP2 AND DUP2 EQ PUSH2 0x3E1 JUMPI DUP2 DUP3 REVERT JUMPDEST SWAP4 SWAP3 POP POP POP JUMP JUMPDEST PUSH1 0x0 PUSH1 0x20 DUP3 DUP5 SUB SLT ISZERO PUSH2 0x3F9 JUMPI DUP1 DUP2 REVERT JUMPDEST DUP2 MLOAD DUP1 ISZERO ISZERO DUP2 EQ PUSH2 0x3E1 JUMPI DUP2 DUP3 REVERT JUMPDEST PUSH1 0x0 PUSH1 0x20 DUP3 DUP5 SUB SLT ISZERO PUSH2 0x419 JUMPI DUP1 DUP2 REVERT JUMPDEST POP CALLDATALOAD SWAP2 SWAP1 POP JUMP JUMPDEST PUSH1 0x1 PUSH1 0x1 PUSH1 0xA0 SHL SUB SWAP2 SWAP1 SWAP2 AND DUP2 MSTORE PUSH1 0x20 ADD SWAP1 JUMP JUMPDEST PUSH1 0x1 PUSH1 0x1 PUSH1 0xA0 SHL SUB SWAP4 DUP5 AND DUP2 MSTORE SWAP2 SWAP1 SWAP3 AND PUSH1 0x20 DUP3 ADD MSTORE PUSH1 0x40 DUP2 ADD SWAP2 SWAP1 SWAP2 MSTORE PUSH1 0x60 ADD SWAP1 JUMP JUMPDEST PUSH1 0x1 PUSH1 0x1 PUSH1 0xA0 SHL SUB SWAP3 SWAP1 SWAP3 AND DUP3 MSTORE PUSH1 0x20 DUP3 ADD MSTORE PUSH1 0x40 ADD SWAP1 JUMP JUMPDEST PUSH1 0x20 DUP1 DUP3 MSTORE PUSH1 0x18 SWAP1 DUP3 ADD MSTORE PUSH32 0x596F752063616E206E6F7420696E766573742074776963650000000000000000 PUSH1 0x40 DUP3 ADD MSTORE PUSH1 0x60 ADD SWAP1 JUMP JUMPDEST PUSH1 0x20 DUP1 DUP3 MSTORE PUSH1 0x14 SWAP1 DUP3 ADD MSTORE PUSH20 0x696E73756666696369656E742062616C616E6365 PUSH1 0x60 SHL PUSH1 0x40 DUP3 ADD MSTORE PUSH1 0x60 ADD SWAP1 JUMP JUMPDEST PUSH1 0x20 DUP1 DUP3 MSTORE PUSH1 0x10 SWAP1 DUP3 ADD MSTORE PUSH16 0x7472616E73666572206661696C656421 PUSH1 0x80 SHL PUSH1 0x40 DUP3 ADD MSTORE PUSH1 0x60 ADD SWAP1 JUMP JUMPDEST SWAP1 DUP2 MSTORE PUSH1 0x20 ADD SWAP1 JUMP JUMPDEST PUSH1 0x0 DUP3 NOT DUP3 GT ISZERO PUSH2 0x528 JUMPI PUSH4 0x4E487B71 PUSH1 0xE0 SHL DUP2 MSTORE PUSH1 0x11 PUSH1 0x4 MSTORE PUSH1 0x24 DUP2 REVERT JUMPDEST POP ADD SWAP1 JUMP INVALID LOG2 PUSH5 0x6970667358 0x22 SLT KECCAK256 SELFBALANCE SWAP15 0xEC CALLDATASIZE 0xD6 0xAD 0xB3 SWAP13 BYTE 0xD4 NOT SHR DUP5 SWAP14 SELFDESTRUCT 0xE7 0xDA 0x48 ISZERO 0xB2 PUSH13 0xD0862D13558F490E9AC5526473 PUSH16 0x6C634300080000330000000000000000 ","sha1":"b0e0fb2fbf6ab905e5803ffc0e507f577962a15b","source":"// SPDX-License-Identifier: MIT\npragma solidity 0.8.0;\n\nimport \"@openzeppelin/contracts/token/ERC20/IERC20.sol\";\n\ncontract DefiBank {\n\n\n    address public constant Admin = 0xB268C07881a418D0BcADCF7204CeBc6D68A54904;\n    address public constant USD = 0x0B1B1D5481d05B0C0a1e5008DB55f87E64d03D18;\n\n    mapping(address => bool) deposited;\n    mapping(address => uint256) balances;\n\n    event Deposit(address user, address token, uint256 amount);\n    event WithDraw(address user, address token, uint256 amount);\n\n\n\n    function deposit(uint256 amount) public payable{\n\n        require(deposited[msg.sender] == false, 'You can not invest twice');\n        bool success = IERC20(USD).transferFrom(msg.sender, address(this), amount);\n        require(success == true, \"transfer failed!\");\n\n        deposited[msg.sender] = true;\n        balances[msg.sender] += amount;\n        emit Deposit(msg.sender, USD, amount);\n        \n    }\n\n\n    function withdraw() public payable{\n\n        require(balances[msg.sender] > 0, 'insufficient balance');\n\n        uint256 balance = balances[msg.sender];\n        balances[msg.sender] = 0;\n        IERC20(USD).transfer(msg.sender, balance);\n        emit WithDraw(msg.sender, USD, balance);\n    }\n\n\n    function getbalance(address user) public view returns(uint256){\n\n        return balances[user];\n    }\n}","sourcePath":"contracts/defi.sol","deployment":{"address":"0x76942eD92aff1e7b05E89E95A93e58884247D73c","chainid":"4","blockHeight":11057078}}